S00D00007461736B312E7372656333
S11300000C9434000C94E6020C9451000C945100AE
S11300100C9451000C9451000C9451000C94510018
S11300200C9451000C9451000C9451000C94510008
S11300300C9451000C9451000C9451000C945100F8
S11300400C9451000C9451000C9451000C945100E8
S11300500C9451000C9451000C9451000C945100D8
S11300600C9451000C94510011241FBECFEFD8E022
S1130070DEBFCDBF12E0A0E0B1E0E6EBF3E102C0E9
S113008005900D92A83AB107D9F722E0A8EAB2E0A8
S113009001C01D92A73EB207E1F70E94A2030C948F
S11300A0D9090C940000CF93C82F8A3019F48DE03D
S11300B00E945300E0ECF0E0808185FFFDCFC09307
S11300C0C60080E090E0CF910895E0ECF0E08081FC
S11300D08823ECF78091C60090E008951092C50043
S11300E087E68093C40088E18093C100E1EEF2E0EA
S11300F088E191E0938382838AE091E09183808315
S11301000895249884B1886284B980E58CBD8DB546
S113011081608DBD08958EBD0DB407FEFDCF089599
S11301208EBD0DB407FEFDCF8EB50895DF92EF921C
S1130130FF920F931F93CF93DF937B018A012A9839
S11301400E949000D82E0115110551F0E7010E0D03
S11301501F1D88810E9490008993C017D107C9F799
S11301602A9A8D2DDF91CF911F910F91FF90EF90DF
S1130170DF90089580620E94960008950F931F9364
S1130180CF93DF931F92CDB7DEB7F894E9E6F0E0A2
S1130190808182608083E89A7894219A229A2A9AAC
S11301A029980E9481002FEF81EE94E02150804035
S11301B09040E1F700C000000FE30093E00241E04B
S11301C050E060EE72E080E00E94BA001092E0021B
S11301D041E050E060EE72E081E00E94BA0080EFFE
S11301E08093E00241E050E060EE72E084E00E941F
S11301F0BA001092E00241E050E060EE72E082E06A
S11302000E94BA0084E78093E00241E050E060EE8F
S113021072E085E00E94BA008EE08093E00241E043
S113022050E060EE72E086E00E94BA0010E710939E
S1130230E00241E050E060EE72E087E00E94BA0024
S11302400093E00241E050E060EE72E08CE10E9435
S1130250BA0084E08093E00241E050E060EE72E096
S11302608DE10E94BA00198340E050E060E070E044
S113027082EE0E94BA0040E050E060E070E081EE5F
S11302800E94BA0045E050E065E071E08AE00E9417
S1130290BA0045E050E060E071E080E10E94BA00FD
S11302A041E050E0BE016F5F7F4F82E00E94BA00E0
S11302B089818160898341E050E0BE016F5F7F4F97
S11302C082E00E94BA000F90DF91CF911F910F91AD
S11302D008950E94960008951F93CF93DF931F9271
S11302E0CDB7DEB7182F41E050E0BE016F5F7F4FFE
S11302F080E00E946901133071F128F4113059F043
S11303001230E9F05EC0153009F447C0D0F1163060
S113031009F445C056C0898181FD53C08260809331
S1130320E00241E050E060EE72E080E00E94BA003A
S11303308FE39FE10197F1F700C0000042C089817B
S11303408D7F8093E00241E050E060EE72E080E057
S11303500E94BA0036C0898181608093E00241E046
S113036050E060EE72E080E00E94BA0080E7809383
S1130370E00241E050E060EE72E087E00E94BA00E3
S113038020C089818E7F8093E00241E050E060EEDE
S113039072E080E00E94BA0014C0299812C08981DA
S11303A08E7F8093E00241E050E060EE72E080E0F6
S11303B00E94BA00299A87E592E00197F1F700C0FC
S11303C000000F90DF91CF911F91089583E00E9468
S11303D06C01299A87E592E00197F1F700C00000CB
S11303E00895CF92DF92EF92FF920F931F93CF93D2
S11303F0DF93CDB7DEB7A0970FB6F894DEBF0FBE7C
S1130400CDBF6C016894FF24F5F8CE010196FC0180
S11304102F2D11922A95E9F7B6010E949406F60150
S113042001900020E9F731978F010C191D0984E030
S11304300E946C0140E050E060E070E082EE0E94B7
S1130440BA0040E050E060E070E081EE0E94BA0043
S1130450F092E00241E050E060EE72E087E00E943A
S1130460BA0041E050E060EE72E080E00E94690171
S11304708091E00280648093E00241E050E060EE0D
S113048072E080E00E94BA002A9880EB0E948B0000
S1130490EFEFE00F002381F08601EE2EF12CF7013F
S11304A031967601EE0EFF1EF80181918F010E94B4
S11304B08B000E151F05C1F780E00E948B002A9A5D
S11304C0299AF0E5FA95F1F7299841E050E060EEB9
S11304D072E087E00E9469018091E00285FD0BC013
S11304E041E050E060EE72E087E00E946901809193
S11304F0E00285FFF5CFCE0101969F938F9386E2AC
S113050091E09F938F930E949B0641E050E060EE40
S113051072E080E00E9469018091E0028F7B809309
S1130520E00241E050E060EE72E080E00E94BA0038
S11305300E94E6010F900F900F900F9081E0A0961B
S11305400FB6F894DEBF0FBECDBFDF91CF911F91E0
S11305500F91FF90EF90DF90CF90089580E2E8EA4A
S1130560F2E0DF011D928A95E9F741E050E060EE88
S113057072E080E60E9469014091E002442341F068
S113058050E04F5F5F4F68EA72E081E60E94960098
S11305908091A802882369F080E48093E00241E01E
S11305A050E060EE72E087E00E94BA0088EA92E0D0
S11305B0089580E48093E00241E050E060EE72E050
S11305C087E00E94BA0088E391E008951F920F9299
S11305D00FB60F9211248F9381E08093C9028F91FB
S11305E00F900FBE0F901F901895CF93DF931F921B
S11305F0CDB7DEB78FE391E00E94B1068DE691E0BE
S11306000E94B10641E050E0BE016F5F7F4F80E081
S11306100E94690189811F928F9389E991E09F93D8
S11306208F930E949B0641E050E0BE016F5F7F4FB5
S113063081E00E94690189811F928F9387EA91E08A
S11306409F938F930E949B0641E050E0BE016F5F31
S11306507F4F82E00E94690189811F928F9385EB0D
S113066091E09F938F930E949B0641E050E0BE016E
S11306706F5F7F4F84E00E94690189811F928F938D
S113068086EC91E09F938F930E949B0641E050E09B
S1130690BE016F5F7F4F85E00E94690189811F92CF
S11306A08F9388ED91E09F938F930E949B0641E086
S11306B050E0BE016F5F7F4F86E00E94690189812F
S11306C01F928F9386EE91E09F938F930E949B06D7
S11306D041E050E0BE016F5F7F4F87E00E946901F7
S11306E089811F928F9386EF91E09F938F930E944D
S11306F09B0641E050E0BE016F5F7F4F8DE10E9499
S1130700690189811F928F9384E092E09F938F9374
S11307100E949B060FB6F894DEBF0FBECDBF83E1E7
S113072092E00E94B1060F90DF91CF910895ECE71B
S1130730F0E0808184648083EAE7F0E0808185686A
S113074080830895CF93DF93CDB7DEB7A0970FB61C
S1130750F894DEBF0FBECDBF8EE0E0E4F2E0DE0130
S1130760119601900D928A95E1F70E946E000E9405
S113077097030E94BE000E94F5020E94E6018AE1EE
S1130780EEE4F2E0DE01119601900D928A95E1F714
S1130790CE0101960E94F1010F2EF8E6AF2EF2E091
S11307A0BF2EF02D0AE710E00F2EF8E78F2E912CC4
S11307B0F02D0F2EF9E76F2E712CF02D0F2EF3E88C
S11307C0CF2EF2E0DF2EF02D0F2EFCECEF2EF2E018
S11307D0FF2EF02D2E2C3F2C442443940F2EF4E1B5
S11307E05F2EF02D8091C9028823E1F31092C90293
S11307F00E94AE029F938F93BF92AF920E949B067A
S1130800F8018081806480830F900F900F900F9087
S1130810F801808184FFFCCF808180618083F401B2
S1130820808190E09093CB028093CA02F3012081EF
S11308308091CA029091CB02922B9093CB02809329
S1130840CA026091CA027091CB0280E090E00E94DB
S1130850990520E030E040E85AE30E94270620E0B2
S113086030E44CE955E40E94270620E030E040E201
S113087051E40E94F8040E946A057093CB026093CD
S1130880CA026091CA027091CB0280E090E00E949B
S1130890990526E636E646EE5FE30E94270620E049
S11308A030E040E052E40E948C040E946A05709398
S11308B0CB026093CA028091CA029091CB029F93AB
S11308C08F93DF92CF921F925F92FF92EF920E94DA
S11308D0E106FFEF29E638E1F15020403040E1F72E
S11308E000C00000822D932D0E94F101942D0FB6BB
S11308F0F894DEBF0FBECDBF811101C090E090938C
S1130900C8028091C802882309F46CCF88E892E079
S11309100E94B10663CF5058BB27AA270E94A304A4
S11309200C94ED050E94DF0538F00E94E60520F0E6
S113093039F49F3F19F426F40C94DC050EF4E09589
S1130940E7FB0C94D605E92F0E94FE0558F3BA176D
S1130950620773078407950720F079F4A6F50C94D1
S113096020060EF4E0950B2EBA2FA02D0B01B90131
S113097090010C01CA01A0011124FF27591B99F011
S1130980593F50F4503E68F11A16F040A22F232F1D
S1130990342F4427585FF3CF469537952795A7956D
S11309A0F0405395C9F77EF41F16BA0B620B730B14
S11309B0840BBAF09150A1F0FF0FBB1F661F771F85
S11309C0881FC2F70EC0BA0F621F731F841F48F43A
S11309D0879577956795B795F7959E3F08F0B0CFC3
S11309E09395880F08F09927EE0F979587950895AA
S11309F00E940C050C94ED050E94E60558F00E9437
S1130A00DF0540F029F45F3F29F00C94D60551111D
S1130A100C9421060C94DC050E94FE0568F39923CE
S1130A20B1F3552391F3951B550BBB27AA276217E6
S1130A307307840738F09F5F5F4F220F331F441FF3
S1130A40AA1FA9F335D00E2E3AF0E0E832D0915027
S1130A505040E695001CCAF72BD0FE2F29D0660F14
S1130A60771F881FBB1F261737074807AB07B0E857
S1130A7009F0BB0B802DBF01FF2793585F4F3AF05D
S1130A809E3F510578F00C94D6050C9421065F3FE7
S1130A90E4F3983ED4F3869577956795B795F795E3
S1130AA09F5FC9F7880F911D9695879597F90895CB
S1130AB0E1E0660F771F881FBB1F62177307840767
S1130AC0BA0720F0621B730B840BBA0BEE1F88F776
S1130AD0E09508950E94060688F09F5798F0B92F74
S1130AE09927B751B0F0E1F0660F771F881F991F5F
S1130AF01AF0BA95C9F714C0B13091F00E942006DB
S1130B00B1E008950C942006672F782F8827B85FEA
S1130B1039F0B93FCCF3869577956795B395D9F7B6
S1130B203EF490958095709561957F4F8F4F9F4FC0
S1130B300895E89409C097FB3EF4909580957095CC
S1130B4061957F4F8F4F9F4F9923A9F0F92F96E915
S1130B50BB279395F695879577956795B795F1118A
S1130B60F8CFFAF4BB0F11F460FF1BC06F5F7F4F27
S1130B708F4F9F4F16C0882311F096E911C0772339
S1130B8021F09EE8872F762F05C0662371F096E842
S1130B90862F70E060E02AF09A95660F771F881F11
S1130BA0DAF7880F9695879597F9089597F99F67CF
S1130BB080E870E060E008959FEF80EC08950024E1
S1130BC00A941616170618060906089500240A94AE
S1130BD012161306140605060895092E0394000C34
S1130BE011F4882352F0BB0F40F4BF2B11F460FFC3
S1130BF004C06F5F7F4F8F4F9F4F089557FD9058EC
S1130C00440F551F59F05F3F71F04795880F97FBCC
S1130C10991F61F09F3F79F0879508951216130686
S1130C201406551FF2CF4695F1DF08C016161706B5
S1130C301806991FF1CF86957105610508940895EA
S1130C40E894BB2766277727CB0197F908950E947C
S1130C503A060C94ED050E94DF0538F00E94E60583
S1130C6020F0952311F00C94D6050C94DC05112486
S1130C700C9421060E94FE0570F3959FC1F3950F15
S1130C8050E0551F629FF001729FBB27F00DB11D0C
S1130C90639FAA27F00DB11DAA1F649F6627B00D9C
S1130CA0A11D661F829F2227B00DA11D621F739F85
S1130CB0B00DA11D621F839FA00D611D221F749F93
S1130CC03327A00D611D231F849F600D211D822FDA
S1130CD0762F6A2F11249F5750409AF0F1F0882301
S1130CE04AF0EE0FFF1FBB1F661F771F881F91502E
S1130CF05040A9F79E3F510580F00C94D6050C9402
S1130D0021065F3FE4F3983ED4F386957795679583
S1130D10B795F795E7959F5FC1F7FE2B880F911D57
S1130D209695879597F90895FB01DC0101900D9242
S1130D300020E1F70895A0E0B0E0E1EAF6E00C94C9
S1130D40B209AE014B5F5F4FFA0161917191AF013E
S1130D508091E3029091E4020E941107E2E00C9476
S1130D60CE090F931F93CF93DF93E091E302F091A9
S1130D70E402238121FF1BC08C01D0E0C0E0F80114
S1130D8081918F016091E3027091E402DB01189676
S1130D90ED91FC911997882331F00995892B79F30A
S1130DA0DFEFCFEFECCF8AE00995892B19F08FEFB5
S1130DB09FEF02C08D2F9C2FDF91CF911F910F9138
S1130DC00895AEE0B0E0E7EEF6E00C94B0090D89CA
S1130DD01E898F89988D26E02C831A83098397FFB7
S1130DE002C080E090E801979E838D83AE01455E4A
S1130DF05F4F698D7A8DCE0101960E9411074D8156
S1130E005E8157FD0AC02F813885421753070CF4C1
S1130E109A01F801E20FF31F10822E96E4E00C947D
S1130E20CC09ABE0B0E0E7E1F7E00C94A2096C0177
S1130E307B018A01FC0117821682838181FFCCC168
S1130E40CE0101963C01F6019381F70193FD859152
S1130E5093FF81917F01882309F4BAC1853239F463
S1130E6093FD859193FF81917F01853229F4B60129
S1130E7090E00E940809E7CF912C212C312CFFE14E
S1130E80F315D8F08B3279F038F4803279F083326C
S1130E90A1F4232D20611DC08D3261F0803369F4EB
S1130EA0232D216016C0832D8260382EE32DE4604B
S1130EB03E2E2AC0F32DF8601DC037FC2DC020ED56
S1130EC0280F2A3040F08E32B9F436FC81C1232D2C
S1130ED02064322E19C036FE06C08AE0989E200D8A
S1130EE01124922E11C0EAE02E9E200D1124222EF0
S1130EF0F32DF0623F2E08C08C3621F4832D8068D8
S1130F00382E02C0883641F4F70193FD859193FF92
S1130F1081917F018111B3CF982F9F7D9554933098
S1130F2028F40C5F1F4F9FE399830DC0833631F083
S1130F30833771F0833509F059C021C0F8018081ED
S1130F4089830E5F1F4F88248394912C530113C00F
S1130F502801F2E04F0E511CF801A080B18036FE4A
S1130F6003C0692D70E002C06FEF7FEFC5010E94DE
S1130F70FD084C018201F32DFF773F2E16C0280196
S1130F8022E0420E511CF801A080B18036FE03C05D
S1130F90692D70E002C06FEF7FEFC5010E94F20877
S1130FA04C01F32DF0683F2E820133FC1BC0822DCF
S1130FB090E088169906B0F4B60180E290E00E94B1
S1130FC008092A94F4CFF50137FC859137FE819105
S1130FD05F01B60190E00E94080921102A9421E0E3
S1130FE0821A91088114910471F7E8C0843611F0D3
S1130FF0893641F5F80137FE07C06081718182812D
S113100093810C5F1F4F08C060817181072E000C13
S1131010880B990B0E5F1F4FF32DFF763F2E97FF22
S113102009C090958095709561957F4F8F4F9F4F24
S1131030F0683F2E2AE030E0A3010E944409882E84
S1131040861845C0853731F4232D2F7EB22E2AE031
S113105030E025C0932D997FB92E8F36C1F018F456
S1131060883579F0B5C0803719F0883721F0B0C0E1
S1131070E92FE061BE2EB4FE0DC0FB2DF460BF2E3F
S113108009C034FE0AC0292F2660B22E06C028E00B
S113109030E005C020E130E002C020E132E0F80198
S11310A0B7FE07C060817181828193810C5F1F4FFD
S11310B006C06081718180E090E00E5F1F4FA30144
S11310C00E944409882E8618FB2DFF773F2E36FE9A
S11310D00DC0232D2E7FA22E891458F434FE0BC08C
S11310E032FC09C0832D8E7EA82E05C0B82CA32CFB
S11310F003C0B82C01C0B92CA4FE0FC0FE01E80D3A
S1131100F11D8081803321F49A2D997EA92E09C086
S1131110A2FE06C0B394B39404C08A2D867809F065
S1131120B394A3FC11C0A0FE06C0B21488F4280C2A
S1131130922C9B180EC0B21460F4B60180E290E0C9
S11311400E940809B394F7CFB21418F42B1802C004
S1131150982C212CA4FE10C0B60180E390E00E94DC
S11311600809A2FE17C0A1FC03C088E790E002C0F2
S113117088E590E0B6010CC08A2D867859F0A1FE6E
S113118002C08BE201C080E2A7FC8DE2B60190E0D0
S11311900E940809891438F4B60180E390E00E94A3
S11311A008099A94F7CF8A94F301E80DF11D808120
S11311B0B60190E00E9408098110F5CF222009F4BD
S11311C042CEB60180E290E00E9408092A94F6CF4C
S11311D0F6018681978102C08FEF9FEF2B96E2E1A3
S11311E00C94BE09FC010590615070400110D8F7C1
S11311F0809590958E0F9F1F0895FC01615070405B
S113120001900110D8F7809590958E0F9F1F089537
S11312100F931F93CF93DF93FB01238121FD03C021
S11312208FEF9FEF2CC022FF16C046815781248187
S113123035814217530744F4A081B1819D012F5F8A
S11312403F4F318320838C93268137812F5F3F4F1B
S11312503783268314C08B01EC01FB010084F185E4
S1131260E02D0995892BE1F6D80116968D919C9174
S11312701797019617969C938E931697CE01DF913C
S1131280CF911F910F910895FA01AA27283051F1A7
S1131290203181F1E8946F936E7F6E5F7F4F8F4FA3
S11312A09F4FAF4FB1E03ED0B4E03CD0670F781F02
S11312B0891F9A1FA11D680F791F8A1F911DA11DE7
S11312C06A0F711D811D911DA11D20D009F4689420
S11312D03F912AE0269F11243019305D3193DEF6C8
S11312E0CF010895462F4770405D4193B3E00FD07E
S11312F0C9F7F6CF462F4F70405D4A3318F0495D69
S113130031FD4052419302D0A9F7EACFB4E0A6954B
S11313109795879577956795BA95C9F7009761056D
S1131320710508959B01AC010A2E069457954795C3
S113133037952795BA95C9F7620F731F841F951FB8
S1131340A01D08952F923F924F925F926F927F92C9
S11313508F929F92AF92BF92CF92DF92EF92FF92C1
S11313600F931F93CF93DF93CDB7DEB7CA1BDB0B6D
S11313700FB6F894DEBF0FBECDBF09942A88398812
S113138048885F846E847D848C849B84AA84B98419
S1131390C884DF80EE80FD800C811B81AA81B98125
S11313A0CE0FD11D0FB6F894DEBF0FBECDBFED0139
S10913B00895F894FFCF3C
S11313B631313131314545454545000000010000D4
S11313C600000000650000000000000200000000AC
S11313D65300000000004D657373616765207365F3
S11313E66E743A2025730A006661696C656400535D
S11313F6746172747570207375636365737366754F
S11314066C0A0A206E524632344C30312B20636FFC
S11314166E666967757265642061733A002D2D2DB9
S11314262D2D2D2D2D2D2D2D2D2D2D2D2D2D2D2DE2
S11314362D2D2D2D2D2D2D2D2D2D2D2D2D2D2D2DD2
S11314462D2D2D2D2D2D2D2D00434F4E464947096B
S113145609307825780A00454E5F4141090909306B
S11314667825780A00454E5F52584144445209098A
S1131476307825780A0053455455505F52455452E6
S11314860909307825780A0052465F434809090954
S1131496307825780A0052465F5345545550090959
S11314A6307825780A005354415455530909307845
S11314B625780A0046454154555245090930782590
S11314C6780A002D2D2D2D2D2D2D2D2D2D2D2D2D47
S11314D62D2D2D2D2D2D2D2D2D2D2D2D2D2D2D2D32
S11314E62D2D2D2D2D2D2D2D2D2D2D2D2D2D0A0072
S11314F64974277320776F726B696E672100496E92
S1131506697469616C697A696E67204368617420DD
S1131516526F6F6D2E2E2E00526563656976656473
S11315262054656D70657261747572653A20257311
S11315360A0A0025640D0A0054656D7065726174AB
S1131546757265205375636365737366756C6C7920
S10B15562053656E740A0000C5
S9030000FC
