S0140000444132435F5461736B335F312E7372656361
S11300000C9434000C9446000C9446000C94460066
S11300100C9446000C9446000C9446000C94460044
S11300200C9446000C9446000C9446000C94460034
S11300300C9446000C9446000C945B000C9446000F
S11300400C9446000C9446000C9446000C94460014
S11300500C9446000C9446000C9446000C94460004
S11300600C9446000C94460011241FBECFEFD8E038
S1130070DEBFCDBF21E0A0E0B1E001C01D92A230FF
S1130080B207E1F70E9448000C948E000C94000023
S1130090229A85B115B8EEE6F0E080818260808313
S11300A084B5826084BD8FEF87BD16BC789485B516
S11300B0856085BDFFCF1F920F920FB60F9211245A
S11300C08F939F93809100019091010101969093E9
S11300D00101809300018A31910551F416BC86B563
S11300E08C38E8F395B184E0892785B916BC0FC034
S11300F08B9769F416BC86B5833BE8F395B184E02D
S1130100892785B9109201011092000116BC9F91B4
S11301108F910F900FBE0F901F901895F894FFCFFA
S9030000FC
