S0140000444132435F5461736B315F312E7372656363
S11300000C9434000C943E000C943E000C943E007E
S11300100C943E000C943E000C943E000C943E0064
S11300200C943E000C943E000C943E000C943E0054
S11300300C943E000C943E000C943E000C943E0044
S11300400C943E000C943E000C943E000C943E0034
S11300500C943E000C943E000C943E000C943E0024
S11300600C943E000C943E0011241FBECFEFD8E048
S1130070DEBFCDBF0E9440000C9467000C940000CA
S113008084E084B915B814BC85E085BD21E034E072
S113009016BC8AE190E0A89BFECF16BC25BB019755
S11300A0D1F786B58C38E8F385B1832785B916BCBA
S11300B081E190E0A89BFECF16BC25BB0197D1F748
S11300C086B5833BE8F385B1832785B9E1CFF894FE
S10500D0FFCF5C
S9030000FC
