S0140000444132435F5461736B335F322E7372656360
S11300000C9434000C9446000C9446000C94460066
S11300100C9446000C9446000C9446000C94460044
S11300200C9446000C9446000C9446000C94460034
S11300300C9446000C9446000C946E000C944600FC
S11300400C9446000C9446000C9446000C94460014
S11300500C9446000C9446000C9446000C94460004
S11300600C9446000C94460011241FBECFEFD8E038
S1130070DEBFCDBF21E0A0E0B1E001C01D92A230FF
S1130080B207E1F70E9448000C9491000C94000020
S1130090229A87B117B82A9A429AEEE6F0E0808154
S11300A08260808384B5826084BD8FEF87BD16BC77
S11300B0789485B5856085BD94E032990AC085B190
S11300C0892785B916BC10920101109200012A9B60
S11300D0FECF1092010110920001EFCF1F920F92F8
S11300E00FB60F9211248F939F93809100019091EA
S11300F00101019690930101809300018C349105D4
S113010041F416BC86B58B34E8F395B184E08927B5
S113011085B916BC9F918F910F900FBE0F901F90C1
S10901201895F894FFCFCE
S9030000FC
