S00C0000444134412E737265631E
S11300000C9434000C9446000C9446000C94460066
S11300100C9448000C9446000C9446000C94460042
S11300200C9446000C9446000C9446000C94460034
S11300300C9446000C9446000C9446000C94460024
S11300400C9446000C9446000C9446000C94460014
S11300500C9446000C9446000C9446000C94460004
S11300600C9446000C94460011241FBECFEFD8E038
S1130070DEBFCDBF21E0A0E0B1E001C01D92A430FD
S1130080B207E1F70E9491000C94F4010C94000073
S11300901F920F920FB60F9211242F938F939F9359
S11300A0319915C02FEF81EE94E0215080409040AB
S11300B0E1F700C00000319BFECF809100019091D8
S11300C0010121E0822790930101809300019F9117
S11300D08F912F910F900FBE0F901F901895569AE5
S11300E0399A84B5836884BDECE6F0E0808182604F
S11300F08083E8E6F0E080818260808385B5856056
S113010085BD089587B117B8419AECE7F0E0808186
S113011080648083EAE7F0E0808187688083789454
S113012008950E9482000E946F00CAE7D0E008E7A9
S113013010E08091000190910101019719F58881E7
S113014080648883888184FFFDCF8881806188836F
S1130150F801808191819093030180930201609161
S1130160020170910301072E000C880B990B0E9469
S1130170FB0026E436EB43E75EE30E945F010E9446
S1130180CA0067BD8091000190910101892B89F615
S113019017BCCFCF0E943E0188F09F5798F0B92F2B
S11301A09927B751B0F0E1F0660F771F881F991FA8
S11301B01AF0BA95C9F714C0B13091F00E945801F1
S11301C0B1E008950C945801672F782F8827B85F01
S11301D039F0B93FCCF3869577956795B395D9F700
S11301E03EF490958095709561957F4F8F4F9F4F0A
S11301F00895E89409C097FB3EF490958095709516
S113020061957F4F8F4F9F4F9923A9F0F92F96E95E
S1130210BB279395F695879577956795B795F111D3
S1130220F8CFFAF4BB0F11F460FF1BC06F5F7F4F70
S11302308F4F9F4F16C0882311F096E911C0772382
S113024021F09EE8872F762F05C0662371F096E88B
S1130250862F70E060E02AF09A95660F771F881F5A
S1130260DAF7880F9695879597F9089557FD905872
S1130270440F551F59F05F3F71F04795880F97FB66
S1130280991F61F09F3F79F0879508951216130620
S11302901406551FF2CF4695F1DF08C0161617064F
S11302A01806991FF1CF8695710561050894089584
S11302B0E894BB2766277727CB0197F908950E9416
S11302C072010C94E3010E94D50138F00E94DC0114
S11302D020F0952311F00C94CC010C94D20111243C
S11302E00C9459010E94360170F3959FC1F3950F48
S11302F050E0551F629FF001729FBB27F00DB11DA6
S1130300639FAA27F00DB11DAA1F649F6627B00D35
S1130310A11D661F829F2227B00DA11D621F739F1E
S1130320B00DA11D621F839FA00D611D221F749F2C
S11303303327A00D611D231F849F600D211D822F73
S1130340762F6A2F11249F5750409AF0F1F088239A
S11303504AF0EE0FFF1FBB1F661F771F881F9150C7
S11303605040A9F79E3F510580F00C94CC010C94A9
S113037059015F3FE4F3983ED4F3869577956795EA
S1130380B795F795E7959F5FC1F7FE2B880F911DF1
S11303909695879597F9089597F99F6780E870E097
S11303A060E008959FEF80EC089500240A941616E7
S11303B0170618060906089500240A94121613064F
S11303C0140605060895092E0394000C11F48823DD
S11303D052F0BB0F40F4BF2B11F460FF04C06F5FF9
S10F03E07F4F8F4F9F4F0895F894FFCF7C
S9030000FC
