S0140000444132415F5461736B325F432E7372656352
S11300000C9434000C943E000C943E000C943E007E
S11300100C943E000C943E000C943E000C943E0064
S11300200C943E000C943E000C943E000C943E0054
S11300300C943E000C943E000C943E000C943E0044
S11300400C943E000C943E000C943E000C943E0034
S11300500C943E000C943E000C943E000C943E0024
S11300600C943E000C943E0011241FBECFEFD8E048
S1130070DEBFCDBF0E9440000C9455000C940000DC
S1130080229A2A9A87B117B888B188B932990BC0D5
S11300902A982FEF88E09DE3215080409040E1F7BB
S11100A000C00000F3CF2A9AF1CFF894FFCFEE
S9030000FC
