S00C0000444134422E737265631D
S11300000C9434000C9446000C9446000C94460066
S11300100C9446000C9446000C9446000C94460044
S11300200C9446000C9446000C9446000C94460034
S11300300C9446000C9446000C9446000C94460024
S11300400C9446000C9446000C9446000C94460014
S11300500C9446000C9446000C9446000C94460004
S11300600C9446000C94460011241FBECFEFD8E038
S1130070DEBFCDBF21E0A0E0B1E001C01D92A230FF
S1130080B207E1F70E9457000C949B000C94000007
S113009087B117B8419AECE7F0E0808180648083EF
S11300A0EAE7F0E0808187688083789408958FE0A0
S11300B084B915B80E9448008AE080938100EAE779
S11300C0F0E0C8E7D0E0A8E8B0E079E063E056E00B
S11300D04CE0808180648083808184FFFDCF8081B7
S11300E080618083888199819093010180930001CC
S11300F080910001909101019C01220F331F880F10
S1130100991F880F991F880F991F820F931F1196AB
S11301109C938E9375B9B19BFECFB19A65B9B19B8F
S1130120FECFB19A55B9B19BFECFB19A45B9B19BF7
S10D0130FECFB19ACECFF894FFCFB2
S9030000FC
